{
  "contractName": "EmploymentContract",
  "abi": [
    {
      "inputs": [],
      "stateMutability": "nonpayable",
      "type": "constructor"
    },
    {
      "inputs": [],
      "name": "contractFile",
      "outputs": [
        {
          "internalType": "string",
          "name": "",
          "type": "string"
        }
      ],
      "stateMutability": "view",
      "type": "function",
      "constant": true
    },
    {
      "inputs": [],
      "name": "employee",
      "outputs": [
        {
          "internalType": "address",
          "name": "",
          "type": "address"
        }
      ],
      "stateMutability": "view",
      "type": "function",
      "constant": true
    },
    {
      "inputs": [],
      "name": "employeeSigned",
      "outputs": [
        {
          "internalType": "bool",
          "name": "",
          "type": "bool"
        }
      ],
      "stateMutability": "view",
      "type": "function",
      "constant": true
    },
    {
      "inputs": [],
      "name": "employer",
      "outputs": [
        {
          "internalType": "address",
          "name": "",
          "type": "address"
        }
      ],
      "stateMutability": "view",
      "type": "function",
      "constant": true
    },
    {
      "inputs": [],
      "name": "employerSigned",
      "outputs": [
        {
          "internalType": "bool",
          "name": "",
          "type": "bool"
        }
      ],
      "stateMutability": "view",
      "type": "function",
      "constant": true
    },
    {
      "inputs": [
        {
          "internalType": "address",
          "name": "_employee",
          "type": "address"
        },
        {
          "internalType": "string",
          "name": "_contractFile",
          "type": "string"
        }
      ],
      "name": "setEmployee",
      "outputs": [],
      "stateMutability": "nonpayable",
      "type": "function"
    },
    {
      "inputs": [],
      "name": "signAsEmployer",
      "outputs": [],
      "stateMutability": "nonpayable",
      "type": "function"
    },
    {
      "inputs": [],
      "name": "signAsEmployee",
      "outputs": [],
      "stateMutability": "nonpayable",
      "type": "function"
    },
    {
      "inputs": [],
      "name": "isSigned",
      "outputs": [
        {
          "internalType": "bool",
          "name": "",
          "type": "bool"
        }
      ],
      "stateMutability": "view",
      "type": "function",
      "constant": true
    }
  ],
  "bytecode": "0x608060405234801561001057600080fd5b50336000806101000a81548173ffffffffffffffffffffffffffffffffffffffff021916908373ffffffffffffffffffffffffffffffffffffffff160217905550610a8b806100606000396000f3fe608060405234801561001057600080fd5b50600436106100935760003560e01c806363dbaf431161006657806363dbaf43146100e85780637c9225cd14610104578063a0a1a7d714610122578063ae200e7914610140578063e66a6b221461015e57610093565b80631973ba4b146100985780633c3fea7e146100a2578063471fad12146100c0578063509aab9f146100ca575b600080fd5b6100a061017c565b005b6100aa610227565b6040516100b79190610803565b60405180910390f35b6100c861023a565b005b6100d26102e7565b6040516100df919061081e565b60405180910390f35b61010260048036038101906100fd919061060b565b610375565b005b61010c61045f565b6040516101199190610803565b60405180910390f35b61012a610472565b60405161013791906107e8565b60405180910390f35b610148610498565b60405161015591906107e8565b60405180910390f35b6101666104bc565b6040516101739190610803565b60405180910390f35b60008054906101000a900473ffffffffffffffffffffffffffffffffffffffff1673ffffffffffffffffffffffffffffffffffffffff163373ffffffffffffffffffffffffffffffffffffffff161461020a576040517f08c379a000000000000000000000000000000000000000000000000000000000815260040161020190610860565b60405180910390fd5b6001600360006101000a81548160ff021916908315150217905550565b600360019054906101000a900460ff1681565b600160009054906101000a900473ffffffffffffffffffffffffffffffffffffffff1673ffffffffffffffffffffffffffffffffffffffff163373ffffffffffffffffffffffffffffffffffffffff16146102ca576040517f08c379a00000000000000000000000000000000000000000000000000000000081526004016102c190610880565b60405180910390fd5b6001600360016101000a81548160ff021916908315150217905550565b600280546102f49061099d565b80601f01602080910402602001604051908101604052809291908181526020018280546103209061099d565b801561036d5780601f106103425761010080835404028352916020019161036d565b820191906000526020600020905b81548152906001019060200180831161035057829003601f168201915b505050505081565b60008054906101000a900473ffffffffffffffffffffffffffffffffffffffff1673ffffffffffffffffffffffffffffffffffffffff163373ffffffffffffffffffffffffffffffffffffffff1614610403576040517f08c379a00000000000000000000000000000000000000000000000000000000081526004016103fa90610840565b60405180910390fd5b81600160006101000a81548173ffffffffffffffffffffffffffffffffffffffff021916908373ffffffffffffffffffffffffffffffffffffffff160217905550806002908051906020019061045a9291906104eb565b505050565b600360009054906101000a900460ff1681565b600160009054906101000a900473ffffffffffffffffffffffffffffffffffffffff1681565b60008054906101000a900473ffffffffffffffffffffffffffffffffffffffff1681565b6000600360009054906101000a900460ff1680156104e65750600360019054906101000a900460ff165b905090565b8280546104f79061099d565b90600052602060002090601f0160209004810192826105195760008555610560565b82601f1061053257805160ff1916838001178555610560565b82800160010185558215610560579182015b8281111561055f578251825591602001919060010190610544565b5b50905061056d9190610571565b5090565b5b8082111561058a576000816000905550600101610572565b5090565b60006105a161059c846108d1565b6108a0565b9050828152602081018484840111156105b957600080fd5b6105c484828561095b565b509392505050565b6000813590506105db81610a3e565b92915050565b600082601f8301126105f257600080fd5b813561060284826020860161058e565b91505092915050565b6000806040838503121561061e57600080fd5b600061062c858286016105cc565b925050602083013567ffffffffffffffff81111561064957600080fd5b610655858286016105e1565b9150509250929050565b6106688161091d565b82525050565b6106778161092f565b82525050565b600061068882610901565b610692818561090c565b93506106a281856020860161096a565b6106ab81610a2d565b840191505092915050565b60006106c360388361090c565b91507f4f6e6c792074686520656d706c6f7965722063616e207365742074686520656d60008301527f706c6f79656520616e6420636f6e74726163742066696c6500000000000000006020830152604082019050919050565b600061072960288361090c565b91507f4f6e6c792074686520656d706c6f7965722063616e207369676e20746869732060008301527f636f6e74726163740000000000000000000000000000000000000000000000006020830152604082019050919050565b600061078f60288361090c565b91507f4f6e6c792074686520656d706c6f7965652063616e207369676e20746869732060008301527f636f6e74726163740000000000000000000000000000000000000000000000006020830152604082019050919050565b60006020820190506107fd600083018461065f565b92915050565b6000602082019050610818600083018461066e565b92915050565b60006020820190508181036000830152610838818461067d565b905092915050565b60006020820190508181036000830152610859816106b6565b9050919050565b600060208201905081810360008301526108798161071c565b9050919050565b6000602082019050818103600083015261089981610782565b9050919050565b6000604051905081810181811067ffffffffffffffff821117156108c7576108c66109fe565b5b8060405250919050565b600067ffffffffffffffff8211156108ec576108eb6109fe565b5b601f19601f8301169050602081019050919050565b600081519050919050565b600082825260208201905092915050565b60006109288261093b565b9050919050565b60008115159050919050565b600073ffffffffffffffffffffffffffffffffffffffff82169050919050565b82818337600083830152505050565b60005b8381101561098857808201518184015260208101905061096d565b83811115610997576000848401525b50505050565b600060028204905060018216806109b557607f821691505b602082108114156109c9576109c86109cf565b5b50919050565b7f4e487b7100000000000000000000000000000000000000000000000000000000600052602260045260246000fd5b7f4e487b7100000000000000000000000000000000000000000000000000000000600052604160045260246000fd5b6000601f19601f8301169050919050565b610a478161091d565b8114610a5257600080fd5b5056fea264697066735822122033461e5e4d7d54ee626e64722808a74a697db700dc4ae93ad7166784979dcfc664736f6c63430008000033",
  "immutableReferences": {},
  "source": "// SPDX-License-Identifier: MIT\r\npragma solidity ^0.8.0;\r\n\r\ncontract EmploymentContract {\r\n    address public employer;\r\n    address public employee;\r\n    string public contractFile;\r\n    bool public employerSigned;\r\n    bool public employeeSigned;\r\n\r\n    constructor() {\r\n        employer = msg.sender;\r\n    }\r\n\r\n    function setEmployee(address _employee, string memory _contractFile) public {\r\n        require(msg.sender == employer, \"Only the employer can set the employee and contract file\");\r\n        employee = _employee;\r\n        contractFile = _contractFile;\r\n    }\r\n\r\n    function signAsEmployer() public {\r\n        require(msg.sender == employer, \"Only the employer can sign this contract\");\r\n        employerSigned = true;\r\n    }\r\n\r\n    function signAsEmployee() public {\r\n        require(msg.sender == employee, \"Only the employee can sign this contract\");\r\n        employeeSigned = true;\r\n    }\r\n\r\n    function isSigned() public view returns (bool) {\r\n        return employerSigned && employeeSigned;\r\n    }\r\n}",
  "sourcePath": "C:\\Users\\admin\\Documents\\DECENTRATHON\\decentrathon\\contracts\\EmploymentContract.sol",
  "compiler": {
    "name": "solc",
    "version": "0.8.0+commit.c7dfd78e.Emscripten.clang"
  },
  "schemaVersion": "3.4.16",
  "updatedAt": "2024-10-19T19:18:13.424Z",
  "networkType": "ethereum",
  "devdoc": {
    "kind": "dev",
    "methods": {},
    "version": 1
  },
  "userdoc": {
    "kind": "user",
    "methods": {},
    "version": 1
  }
}